:020000040800F2
:1000000088060020690200087102000873020008D7
:10001000750200087702000879020008000000005D
:100020000000000000000000000000007B0200084B
:100030007D020008000000007F0200088102000825
:10004000830200088302000883020008830200087C
:10005000830200088302000883020008830200086C
:10006000830200088302000883020008830200085C
:10007000830200088302000883020008830200084C
:10008000830200088302000883020008830200083C
:10009000830200088302000883020008830200082C
:1000A000830200088302000883020008830200081C
:1000B000830200088302000883020008830200080C
:1000C00083020008830200088302000883020008FC
:1000D00083020008830200088302000883020008EC
:1000E00083020008830200088302000883020008DC
:1000F00083020008830200088302000883020008CC
:1001000083020008830200088302000883020008BB
:1001100083020008830200088302000883020008AB
:10012000830200088302000883020008830200089B
:1001300083020008000000000000000083020008A5
:10014000830200088302000883020008830200087B
:10015000830200088302000883020008830200086B
:10016000830200088302000883020008830200085B
:1001700083020008830200088302000800000000D8
:1001800000000000830200080000000000000000E2
:100190008302000800000000000000008302000845
:1001A00000000000000000000000000083020008C2
:1001B000830200088302000883020008830200080B
:1001C0008302000800F002F800F03EF80AA090E870
:1001D000000C82448344AAF10107DA4501D100F002
:1001E00033F8AFF2090EBAE80F0013F0010F18BF91
:1001F000FB1A43F0010318473404000054040000C4
:10020000103A24BF78C878C1FAD8520724BF30C842
:1002100030C144BF04680C60704700000023002414
:1002200000250026103A28BF78C1FBD8520728BF06
:1002300030C148BF0B6070471FB500F0EAF900F00D
:1002400037F81FBD10B510BD00F044F81146FFF798
:10025000F3FF00F0B9F900F062F803B4FFF7F2FF22
:1002600003BC00F06BF800000948804709480047CC
:10027000FEE7FEE7FEE7FEE7FEE7FEE7FEE7FEE756
:10028000FEE7FEE704480549054A064B70470000B3
:1002900049030008C50100088800002088060020E6
:1002A00088020020880200207047704770470000D5
:1002B00070B5064C7C44064D7D4404E02046016840
:1002C00008448047241DAC42F8D170BD940300005F
:1002D00094030000754600F02BF8AE460500694611
:1002E000534620F00700854618B020B5FFF7CAFF37
:1002F000BDE820404FF000064FF000074FF0000827
:100300004FF0000BAC46ACE8C009ACE8C009ACE863
:10031000C009ACE8C00921F007018D46704710B54F
:100320000446AFF300802046BDE81040FFF795BFBC
:100330000048704720000020704700000149182045
:10034000ABBEFEE7260002004EF68850CEF200005B
:10035000016841F4700101607047000080B500F051
:100360002BF980BD43F63000C4F202000169026837
:1003700041F40031016142F0010101600020C4F24A
:100380000200772180F8211001680A2262F3071128
:10039000016044F20840C4F20000D0E9001240F2CB
:1003A0008363194342F20C031A43C0E900127047F9
:1003B0000146C0780F2805D8887806283EBF00205F
:1003C00008707047012008707047000040F201116A
:1003D000002241600272018070470000052984BF3D
:1003E000FF20704748B240F21801C2F200010968CC
:1003F00003A252F820000A6B1043086300207047E4
:1004000001000000020000000400000008000000DD
:100410001000000080000000002101707047000003
:100420002DE9F0410C4621B10546007818B10123B1
:1004300006E0012304E02046FFF7BAFF20B10123C4
:10044000FF206370BDE8F08194F8038068686679E6
:100450004FEA48024FF0030E05680EFA02F394F8D3
:1004600008C0C7689D4306FA02F12943016027EAE4
:1004700003010CFA02F31943022E4FF00103C1608D
:100480001ED0012EDCD1012101FA08F3D0E90117B9
:100490000CFA08F6994331434160032101FA08F14F
:1004A000A6798F43217906FA02F23A43826061B35A
:1004B00001292FD14169DA43114041610023BFE78F
:1004C000D0E9015603FA08F325EA03030CFA08F70A
:1004D0003B43A77943600EFA08F37C2126EA030325
:1004E00007FA02F201EA58011A4382601C2208440A
:1004F000667A02EA88020F23016A9340994306FA5A
:1005000002F21143002301629AE7416919434161F4
:10051000002395E7002393E709B14B780BB1FF2047
:10052000704752B1012AFAD14068C9780122436963
:1005300002FA01F123EA010106E04068C9780122CC
:10054000436902FA01F119434161FF20704700003D
:1005500009B14A780AB1FF2070474068C978012282
:10056000436902FA01F159404161FF2070470000E0
:1005700070B540F28005C2F20005044628780E46A8
:100580000021217008B1204670BD052E0ED82846E6
:100590003146FFF723FF40F20000C2F2000050F89E
:1005A0002600606000202870204670BD0120287061
:1005B0002070204670BD000080B540F28000C2F27D
:1005C0000000FFF729FF80BD86B0FFF7CBFE03AC2C
:1005D0002046FFF7FBFE0520ADF80F00012001AD1E
:1005E0008DF8110028460021FFF7C2FF2146FFF7D2
:1005F00017FF284621460022FFF78EFF2846214696
:100600000122FFF789FF28462146FFF7A1FF00BF1F
:10061000FEE7F1EE100A4FF6FF71C0F2C03120EA9A
:10062000010040F04070E1EE100A704750060008EB
:10063000000000201C000000000200086C060008FA
:1006400020000020680600001C02000811FDFFFFCA
:10065000000002400004024000080240000C02407A
:0C06600000100240001C02400038024064
:040000050800026984
:00000001FF
