:020000040800F2
:1000000070060020550200085D0200085F0200082B
:100010006102000863020008650200080000000099
:10002000000000000000000000000000670200085F
:1000300069020008000000006B0200086D02000861
:100040006F0200086F0200086F0200086F020008CC
:100050006F0200086F0200086F0200086F020008BC
:100060006F0200086F0200086F0200086F020008AC
:100070006F0200086F0200086F0200086F0200089C
:100080006F0200086F0200086F0200086F0200088C
:100090006F0200086F0200086F0200086F0200087C
:1000A0006F0200086F0200086F0200086F0200086C
:1000B0006F0200086F0200086F0200086F0200085C
:1000C0006F0200086F0200086F0200086F0200084C
:1000D0006F0200086F0200086F0200086F0200083C
:1000E0006F0200086F0200086F0200086F0200082C
:1000F0006F0200086F0200086F0200086F0200081C
:100100006F0200086F0200086F0200086F0200080B
:100110006F0200086F0200086F0200086F020008FB
:100120006F0200086F0200086F0200086F020008EB
:100130006F02000800000000000000006F020008CD
:100140006F0200086F0200086F0200086F020008CB
:100150006F0200086F0200086F0200086F020008BB
:100160006F0200086F0200086F0200086F020008AB
:100170006F0200086F0200086F0200080000000014
:10018000000000006F0200080000000000000000F6
:100190006F02000800000000000000006F0200086D
:1001A0000000000000000000000000006F020008D6
:1001B0006F0200086F0200086F0200086F0200085B
:1001C0006F02000800F002F800F034F80AA090E88E
:1001D000000C82448344AAF10107DA4501D100F002
:1001E00029F8AFF2090EBAE80F0013F0010F18BF9B
:1001F000FB1A43F001031847D0050000E00500009A
:100200000023002400250026103A28BF78C1FBD81F
:10021000520728BF30C148BF0B6070471FB500F0C0
:10022000C6FA9DE8030000F0C3F800F037F81FBDE0
:1002300010B510BD00F0F7F81146FFF7EFFF00F022
:1002400079FA00F02FF903B4FFF7F2FF03BC00F0D6
:100250008DF800000948804709480047FEE7FEE79F
:10026000FEE7FEE7FEE7FEE7FEE7FEE7FEE7FEE766
:1002700004480549054A064B70470000610500081F
:10028000C5010008700000207006002070020020E8
:1002900070020020704770477047000070B5064C30
:1002A0007C44064D7D4404E02046016808448047B4
:1002B000241DAC42F8D170BD3405000038050000A3
:1002C00070B5064600F058F8056806F10B0020F0FE
:1002D0000704B4429CBF002070BD2B466A68BAB1C7
:1002E0001068A04210D304F1080188423CBF506856
:1002F000586007D35168101941601168091B0160EB
:1003000058601460101D70BD13465268002AE7D172
:100310002146284600F038F80028DED170BD70B5BF
:100320000446051F00F028F80068002C14BF44683C
:1003300070BD002C18BFAC423CBF20466468F8D3A7
:1003400001680A18AA4218BF456003D12A68054609
:100350001144016028684119A1421CBF6C6070BD46
:100360006168696021680844286070BD01491820EF
:10037000ABBEFEE7260002000048704708000020E0
:10038000704770477047704738B504460A460020EA
:100390006946AFF30080002808BF38BD02460099C7
:1003A000204600F065F8012038BD012000F088B833
:1003B000F8B5AFF30080054600200C46102000BFC2
:1003C0000646A819A0420DD9324669460020AFF36F
:1003D0000080070008BF00F073F80098A04218BF23
:1003E0000546C419FFF7C8FF05600746F01D20F059
:1003F00007004619284600F00AF8B44208BFF8BDC5
:10040000A21B31463868BDE8F84000F031B8002141
:100410000160C0E901107047102070470048704724
:100420000000002070477546FFF7F8FFAE46050054
:100430006946534620F00700854618B020B5FFF7FF
:1004400017FFBDE820404FF000064FF000074FF0C7
:1004500000084FF0000BAC46ACE8C009ACE8C0099E
:10046000ACE8C009ACE8C00921F007018D4670472F
:10047000034640688C46002818BF88423CBF0346AC
:100480004068F8D318681844884207D00CF103007C
:1004900020F00700001D411A521A0146081D0A608B
:1004A000FFF73DBF10B50446AFF300802046BDE81E
:1004B0001040FFF7C8BE002801D0FFF757BF7047B4
:1004C00010B500F01DF8BDE81040FFF7F4BF70B59F
:1004D00005460C460A2000E06D1C00F039F835B1E5
:1004E00028780028F8D102E0641C00F031F814B13B
:1004F00020780028F8D1BDE870400A2000F028B824
:1005000010B5012805D0002103A0FFF7E0FF01206E
:1005100010BD09A1F8E7000053494752544D454D1D
:100520003A204F7574206F662068656170206D6594
:100530006D6F7279000000003A2048656170206D8F
:10054000656D6F727920636F727275707465640087
:1005500008B569468DF800000320ABBE08BD000059
:100560004EF68850CEF20000016841F4700101603F
:100570007047000080B500F0CBF880BD80B500F07A
:10058000BDF800F0CDF880BD43F63000C4F20200A3
:100590000169026841F40031016142F0010101602A
:1005A0000020C4F20200772180F8211001680A229D
:1005B00062F30711016044F20840C4F20000D0E980
:1005C000001240F28363194342F20C031A43C0E95C
:1005D0000012704703781422C4F20202022B417009
:1005E0000AD0012B0FD0002B18BF7047106820F0E5
:1005F0000100084310607047106820F0100040EAC6
:10060000011010607047106820F0020040EA4100BD
:100610001060704743F6300CC4F2020CDCF8003076
:10062000032943F0010342700170CCF8003088BF09
:10063000704740F2000CC4F2020CDFE801F0022E19
:10064000101FDCF80010DCF8143041F00101CCF888
:10065000001023F001011143CCF814107047DCF8AE
:100660000010DCF8143041F48071CCF8001023F055
:10067000100141EA0211CCF814107047DCF80010A8
:10068000DCF8143041F48061CCF8001023F0200134
:1006900041EA4211CCF814107047DCF80010DCF885
:1006A000143041F00401CCF8001023F0020141EABB
:1006B0004201CCF81410704700210170704700000F
:1006C0004078704740F26800C2F20000006870474E
:1006D000FFF725BE10B50446002808BF012400BF5F
:1006E0002046FFF7EDFD002818BF10BDFFF7EAFF19
:1006F00008B18047F4E7002010BD000080B540F24B
:100700006500C2F2000000210122FFF783FF80BDD7
:1007100080B540F26000C2F20000FFF7CDFF80BD5F
:1007200080B540F26200C2F2000003210122FFF70F
:1007300071FF80BD82B0FFF727FF01AD2846012180
:100740000022FFF767FF0220FFF7C4FF022100220B
:100750000446FFF75FFF40F26500C2F20000FFF7BA
:10076000AFFF40F26701C2F2000108702846FFF7B0
:10077000A7FF40F26401C2F2000108702046FFF7B3
:100780009FFF40F26105C2F200052870204601215A
:10079000FFF720FF2046FFF793FF28702046FFF762
:1007A00097FF2046FFF78CFF287000BFFEE7F1EEB1
:1007B000100A4FF6FF71C0F2C03120EA010040F08C
:1007C0004070E1EE100A7047E007000800000020CA
:1007D0007006000000020008A5FDFFFF99FDFFFF65
:040000050800025598
:00000001FF
